{
  "_format": "hh-sol-artifact-1",
  "contractName": "Capstone",
  "sourceName": "contracts/capstone.sol",
  "abi": [
    {
      "inputs": [
        {
          "internalType": "string",
          "name": "tradeid",
          "type": "string"
        },
        {
          "internalType": "address",
          "name": "sender",
          "type": "address"
        },
        {
          "internalType": "address",
          "name": "receiver",
          "type": "address"
        },
        {
          "internalType": "uint256",
          "name": "amount",
          "type": "uint256"
        },
        {
          "internalType": "uint256",
          "name": "timestamp",
          "type": "uint256"
        }
      ],
      "name": "addTrade",
      "outputs": [],
      "stateMutability": "nonpayable",
      "type": "function"
    },
    {
      "inputs": [
        {
          "internalType": "string",
          "name": "tradeid",
          "type": "string"
        }
      ],
      "name": "getTradeData",
      "outputs": [
        {
          "internalType": "string",
          "name": "",
          "type": "string"
        },
        {
          "internalType": "address",
          "name": "",
          "type": "address"
        },
        {
          "internalType": "address",
          "name": "",
          "type": "address"
        },
        {
          "internalType": "uint256",
          "name": "",
          "type": "uint256"
        },
        {
          "internalType": "uint256",
          "name": "",
          "type": "uint256"
        },
        {
          "internalType": "string",
          "name": "",
          "type": "string"
        }
      ],
      "stateMutability": "view",
      "type": "function"
    },
    {
      "inputs": [],
      "name": "getTradeList",
      "outputs": [
        {
          "internalType": "string[]",
          "name": "",
          "type": "string[]"
        }
      ],
      "stateMutability": "view",
      "type": "function"
    },
    {
      "inputs": [
        {
          "internalType": "uint256",
          "name": "",
          "type": "uint256"
        }
      ],
      "name": "tradeIds",
      "outputs": [
        {
          "internalType": "string",
          "name": "",
          "type": "string"
        }
      ],
      "stateMutability": "view",
      "type": "function"
    },
    {
      "inputs": [],
      "name": "tradecounter",
      "outputs": [
        {
          "internalType": "uint256",
          "name": "",
          "type": "uint256"
        }
      ],
      "stateMutability": "view",
      "type": "function"
    },
    {
      "inputs": [
        {
          "internalType": "string",
          "name": "",
          "type": "string"
        }
      ],
      "name": "trades",
      "outputs": [
        {
          "internalType": "string",
          "name": "tradeid",
          "type": "string"
        },
        {
          "internalType": "address",
          "name": "sender",
          "type": "address"
        },
        {
          "internalType": "address",
          "name": "receiver",
          "type": "address"
        },
        {
          "internalType": "uint256",
          "name": "amount",
          "type": "uint256"
        },
        {
          "internalType": "uint256",
          "name": "timestamp",
          "type": "uint256"
        },
        {
          "internalType": "string",
          "name": "status",
          "type": "string"
        }
      ],
      "stateMutability": "view",
      "type": "function"
    },
    {
      "inputs": [
        {
          "internalType": "string",
          "name": "tradeid",
          "type": "string"
        },
        {
          "internalType": "string",
          "name": "newStatus",
          "type": "string"
        }
      ],
      "name": "updateStatus",
      "outputs": [],
      "stateMutability": "nonpayable",
      "type": "function"
    }
  ],
  "bytecode": "0x608060405234801561001057600080fd5b5061125a806100206000396000f3fe608060405234801561001057600080fd5b506004361061007d5760003560e01c8063736ca8a41161005b578063736ca8a4146100ef5780639f07d68c14610124578063c976ba7914610142578063ff52c484146101605761007d565b80630307cf0b14610082578063347047cc1461009e57806347a04100146100ba575b600080fd5b61009c60048036038101906100979190610af7565b610190565b005b6100b860048036038101906100b39190610b8e565b61034f565b005b6100d460048036038101906100cf9190610c06565b610387565b6040516100e696959493929190610cec565b60405180910390f35b61010960048036038101906101049190610c06565b610529565b60405161011b96959493929190610cec565b60405180910390f35b61012c610777565b6040516101399190610e67565b60405180910390f35b61014a610850565b6040516101579190610e89565b60405180910390f35b61017a60048036038101906101759190610ea4565b61085d565b6040516101879190610ed1565b60405180910390f35b60006040518060c001604052808781526020018673ffffffffffffffffffffffffffffffffffffffff1681526020018573ffffffffffffffffffffffffffffffffffffffff1681526020018481526020018381526020016040518060400160405280600981526020017f496e6974696174656400000000000000000000000000000000000000000000008152508152509050806000876040516102339190610f2f565b908152602001604051809103902060008201518160000190816102569190611152565b5060208201518160010160006101000a81548173ffffffffffffffffffffffffffffffffffffffff021916908373ffffffffffffffffffffffffffffffffffffffff16021790555060408201518160020160006101000a81548173ffffffffffffffffffffffffffffffffffffffff021916908373ffffffffffffffffffffffffffffffffffffffff160217905550606082015181600301556080820151816004015560a082015181600501908161030e9190611152565b509050506001869080600181540180825580915050600190039060005260206000200160009091909190915090816103469190611152565b50505050505050565b600080836040516103609190610f2f565b90815260200160405180910390209050818160050190816103819190611152565b50505050565b6000818051602081018201805184825260208301602085012081835280955050505050506000915090508060000180546103c090610f75565b80601f01602080910402602001604051908101604052809291908181526020018280546103ec90610f75565b80156104395780601f1061040e57610100808354040283529160200191610439565b820191906000526020600020905b81548152906001019060200180831161041c57829003601f168201915b5050505050908060010160009054906101000a900473ffffffffffffffffffffffffffffffffffffffff16908060020160009054906101000a900473ffffffffffffffffffffffffffffffffffffffff16908060030154908060040154908060050180546104a690610f75565b80601f01602080910402602001604051908101604052809291908181526020018280546104d290610f75565b801561051f5780601f106104f45761010080835404028352916020019161051f565b820191906000526020600020905b81548152906001019060200180831161050257829003601f168201915b5050505050905086565b60606000806000806060600080886040516105449190610f2f565b90815260200160405180910390206040518060c001604052908160008201805461056d90610f75565b80601f016020809104026020016040519081016040528092919081815260200182805461059990610f75565b80156105e65780601f106105bb576101008083540402835291602001916105e6565b820191906000526020600020905b8154815290600101906020018083116105c957829003601f168201915b505050505081526020016001820160009054906101000a900473ffffffffffffffffffffffffffffffffffffffff1673ffffffffffffffffffffffffffffffffffffffff1673ffffffffffffffffffffffffffffffffffffffff1681526020016002820160009054906101000a900473ffffffffffffffffffffffffffffffffffffffff1673ffffffffffffffffffffffffffffffffffffffff1673ffffffffffffffffffffffffffffffffffffffff16815260200160038201548152602001600482015481526020016005820180546106bf90610f75565b80601f01602080910402602001604051908101604052809291908181526020018280546106eb90610f75565b80156107385780601f1061070d57610100808354040283529160200191610738565b820191906000526020600020905b81548152906001019060200180831161071b57829003601f168201915b50505050508152505090508060a00151816020015182604001518360600151846080015185600001519650965096509650965096505091939550919395565b60606001805480602002602001604051908101604052809291908181526020016000905b828210156108475783829060005260206000200180546107ba90610f75565b80601f01602080910402602001604051908101604052809291908181526020018280546107e690610f75565b80156108335780601f1061080857610100808354040283529160200191610833565b820191906000526020600020905b81548152906001019060200180831161081657829003601f168201915b50505050508152602001906001019061079b565b50505050905090565b6000600180549050905090565b6001818154811061086d57600080fd5b90600052602060002001600091509050805461088890610f75565b80601f01602080910402602001604051908101604052809291908181526020018280546108b490610f75565b80156109015780601f106108d657610100808354040283529160200191610901565b820191906000526020600020905b8154815290600101906020018083116108e457829003601f168201915b505050505081565b6000604051905090565b600080fd5b600080fd5b600080fd5b600080fd5b6000601f19601f8301169050919050565b7f4e487b7100000000000000000000000000000000000000000000000000000000600052604160045260246000fd5b61097082610927565b810181811067ffffffffffffffff8211171561098f5761098e610938565b5b80604052505050565b60006109a2610909565b90506109ae8282610967565b919050565b600067ffffffffffffffff8211156109ce576109cd610938565b5b6109d782610927565b9050602081019050919050565b82818337600083830152505050565b6000610a06610a01846109b3565b610998565b905082815260208101848484011115610a2257610a21610922565b5b610a2d8482856109e4565b509392505050565b600082601f830112610a4a57610a4961091d565b5b8135610a5a8482602086016109f3565b91505092915050565b600073ffffffffffffffffffffffffffffffffffffffff82169050919050565b6000610a8e82610a63565b9050919050565b610a9e81610a83565b8114610aa957600080fd5b50565b600081359050610abb81610a95565b92915050565b6000819050919050565b610ad481610ac1565b8114610adf57600080fd5b50565b600081359050610af181610acb565b92915050565b600080600080600060a08688031215610b1357610b12610913565b5b600086013567ffffffffffffffff811115610b3157610b30610918565b5b610b3d88828901610a35565b9550506020610b4e88828901610aac565b9450506040610b5f88828901610aac565b9350506060610b7088828901610ae2565b9250506080610b8188828901610ae2565b9150509295509295909350565b60008060408385031215610ba557610ba4610913565b5b600083013567ffffffffffffffff811115610bc357610bc2610918565b5b610bcf85828601610a35565b925050602083013567ffffffffffffffff811115610bf057610bef610918565b5b610bfc85828601610a35565b9150509250929050565b600060208284031215610c1c57610c1b610913565b5b600082013567ffffffffffffffff811115610c3a57610c39610918565b5b610c4684828501610a35565b91505092915050565b600081519050919050565b600082825260208201905092915050565b60005b83811015610c89578082015181840152602081019050610c6e565b60008484015250505050565b6000610ca082610c4f565b610caa8185610c5a565b9350610cba818560208601610c6b565b610cc381610927565b840191505092915050565b610cd781610a83565b82525050565b610ce681610ac1565b82525050565b600060c0820190508181036000830152610d068189610c95565b9050610d156020830188610cce565b610d226040830187610cce565b610d2f6060830186610cdd565b610d3c6080830185610cdd565b81810360a0830152610d4e8184610c95565b9050979650505050505050565b600081519050919050565b600082825260208201905092915050565b6000819050602082019050919050565b600082825260208201905092915050565b6000610da382610c4f565b610dad8185610d87565b9350610dbd818560208601610c6b565b610dc681610927565b840191505092915050565b6000610ddd8383610d98565b905092915050565b6000602082019050919050565b6000610dfd82610d5b565b610e078185610d66565b935083602082028501610e1985610d77565b8060005b85811015610e555784840389528151610e368582610dd1565b9450610e4183610de5565b925060208a01995050600181019050610e1d565b50829750879550505050505092915050565b60006020820190508181036000830152610e818184610df2565b905092915050565b6000602082019050610e9e6000830184610cdd565b92915050565b600060208284031215610eba57610eb9610913565b5b6000610ec884828501610ae2565b91505092915050565b60006020820190508181036000830152610eeb8184610c95565b905092915050565b600081905092915050565b6000610f0982610c4f565b610f138185610ef3565b9350610f23818560208601610c6b565b80840191505092915050565b6000610f3b8284610efe565b915081905092915050565b7f4e487b7100000000000000000000000000000000000000000000000000000000600052602260045260246000fd5b60006002820490506001821680610f8d57607f821691505b602082108103610fa057610f9f610f46565b5b50919050565b60008190508160005260206000209050919050565b60006020601f8301049050919050565b600082821b905092915050565b6000600883026110087fffffffffffffffffffffffffffffffffffffffffffffffffffffffffffffffff82610fcb565b6110128683610fcb565b95508019841693508086168417925050509392505050565b6000819050919050565b600061104f61104a61104584610ac1565b61102a565b610ac1565b9050919050565b6000819050919050565b61106983611034565b61107d61107582611056565b848454610fd8565b825550505050565b600090565b611092611085565b61109d818484611060565b505050565b5b818110156110c1576110b660008261108a565b6001810190506110a3565b5050565b601f821115611106576110d781610fa6565b6110e084610fbb565b810160208510156110ef578190505b6111036110fb85610fbb565b8301826110a2565b50505b505050565b600082821c905092915050565b60006111296000198460080261110b565b1980831691505092915050565b60006111428383611118565b9150826002028217905092915050565b61115b82610c4f565b67ffffffffffffffff81111561117457611173610938565b5b61117e8254610f75565b6111898282856110c5565b600060209050601f8311600181146111bc57600084156111aa578287015190505b6111b48582611136565b86555061121c565b601f1984166111ca86610fa6565b60005b828110156111f2578489015182556001820191506020850194506020810190506111cd565b8683101561120f578489015161120b601f891682611118565b8355505b6001600288020188555050505b50505050505056fea264697066735822122092413599010c0cb9329da0b42cf7fe4fa744c165ec7d6acdc4380e0221e3ac7e64736f6c63430008110033",
  "linkReferences": {},
  "deployedLinkReferences": {}
}